0100000001e5a980e4766c1f82daaeec549afc3eb6144cbb25b0e8bce733e2879392f046f8010000006b483045022100c2f62846b724982969c469e9255c278b6acea89fd6d479666f1491c0df66d61e02205bb5031c900cd0d89cfb1a0fcf97add8f2c11951d7122f498fd0528a6a86b2f3012102cc1bf55ed226258390c56bb2522c57831f922042dacd7e3f8d4b31f4f6200d1fffffffff02404b4c00000000001976a91469284717a4fb2acba9f79976c0fc7cdbc4b7d88588ac3302981a000000001976a9146fb573471906314fae746f0255878d737a91dda588ac00000000

{
    "ver": 1,
    "inputs": [
        {
            "sequence": 4294967295,
            "prev_out": {
                "spent": true,
                "tx_index": 86632940,
                "type": 0,
                "addr": "1BBfNgWsfXsBEi2TZ9aLkrjN4M5WXbPAq1",
                "value": 451269651,
                "n": 1,
                "script": "76a9146fb573471906314fae746f0255878d737a91dda588ac"
            },
            "script": "483045022100c2f62846b724982969c469e9255c278b6acea89fd6d479666f1491c0df66d61e02205bb5031c900cd0d89cfb1a0fcf97add8f2c11951d7122f498fd0528a6a86b2f3012102cc1bf55ed226258390c56bb2522c57831f922042dacd7e3f8d4b31f4f6200d1f"
        }
    ],
    "block_height": 356068,
    "relayed_by": "127.0.0.1",
    "out": [
        {
            "spent": true,
            "tx_index": 86677510,
            "type": 0,
            "addr": "1Ab2CgoGQtFbt2qqYBm6BQ9kA1JWZp5VfJ",
            "value": 5000000,
            "n": 0,
            "script": "76a91469284717a4fb2acba9f79976c0fc7cdbc4b7d88588ac"
        },
        {
            "spent": true,
            "tx_index": 86677510,
            "type": 0,
            "addr": "1BBfNgWsfXsBEi2TZ9aLkrjN4M5WXbPAq1",
            "value": 446169651,
            "n": 1,
            "script": "76a9146fb573471906314fae746f0255878d737a91dda588ac"
        }
    ],
    "lock_time": 0,
    "size": 226,
    "double_spend": false,
    "time": 1431425585,
    "tx_index": 86677510,
    "vin_sz": 1,
    "hash": "147b6899fac5e33269536034a6ec1740fea173c3f95461bd7a182f0d58a08446",
    "vout_sz": 2
}